:020000040800F2
:10000000180F0020ED0100083D490008AB3E000834
:1000100039490008B50A0008F16200080000000034
:10002000000000000000000000000000CD4C0008AF
:10003000B10B00080000000041490008CF4C000847
:10004000070200080702000807020008070200086C
:10005000070200080702000807020008070200085C
:10006000070200080702000807020008B90A000892
:10007000C90A0008D90A0008E90A000807020008AE
:1000800007020008000000008108000807020008BD
:10009000070200080702000807020008070200081C
:1000A000070200080702000807020008070200080C
:1000B00007020008070200080702000807020008FC
:1000C00007020008070200080702000807020008EC
:1000D00007020008C16200080702000807020008C2
:1000E00007020008070200080702000807020008CC
:1000F00007020008070200080702000800000000CD
:1001000000000000070200080000000007020008CD
:1001100007020008000000000702000807020008AC
:10012000070200080702000807020008F90A000891
:10013000070200080000000000000000070200089D
:10014000070200080702000800000000000000008D
:10015000000000000000000000000000000000009F
:10016000000000000000000000000000070200087E
:10017000070200080000000000000000000000006E
:10018000000000000702000800000000000000005E
:10019000000000000000000000000000000000005F
:1001A000000000000000000007020008070200082D
:1001B000070200080702000807020008000000000C
:1001C000000000000702000800000000000000001E
:1001D0000702000807020008DFF80CD000F08EF9D3
:1001E00000480047696A0008180F00200648804749
:1001F00006480047FEE7FEE7FEE7FEE7FEE7FEE70C
:10020000FEE7FEE7FEE7FEE7414D0008D9010008E2
:100210002DE9F05F0546002092469B46884606463B
:10022000814640241BE0284641464746224600F0CE
:1002300012F953465A46C01A914110D31146184636
:10024000224600F0F9F82D1A67EB01084F462246C6
:100250000120002100F0F0F817EB00094E41201EAC
:10026000A4F10104DFDC484631462A464346BDE896
:10027000F09FD2B201E000F8012B491EFBD270477B
:100280000022F6E710B513460A4604461946FFF762
:10029000F0FF204610BD10B5002200E0521C835C28
:1002A0008C5CA34201D1002BF8D1D8B2E1B2401A44
:1002B00010BD00000FB400B58DB010A909900B90CF
:1002C00000914FF0FF300A9000200C9005480690F6
:1002D000054807906A4609A80F9900F0E1F80DB0AB
:1002E0005DF814FBBD040008DB0400082DE9FF5F86
:1002F0001D464FF0FF3BD5E9014691465F464FF062
:100300000008A9697F1C01988847296A82468847A6
:100310000028F6D1BAF1FF3F0CD024F4C064002EBF
:1003200019DD600614D5BAF12B0F09D0BAF12D0FE3
:100330000ED103E0584604B0BDE8F09F44F4806459
:10034000A9697F1C01988847761E8246002E02DD2F
:10035000BAF1300F03D0B9F1000F26D032E0A9690D
:10036000761E44F400747F1C019888478246002E54
:1003700005DDBAF1780F06D0BAF1580F03D0B9F104
:10038000000F10D01EE0B9F1000F02D0B9F1100F2C
:1003900018D1A969761E24F400747F1C019888473F
:1003A0008246102002E0082000E00A20814609E091
:1003B00008FB0908A969761E44F400747F1C0198A3
:1003C00088478246002E05DD4946504600F053F826
:1003D0000028EDDAE96901988847A00502D46FF09A
:1003E0000100A8E7E00725D1600613D5600502D516
:1003F000C8F1000000E0404629680A1D2A6009682B
:10040000220501D5087015E0220701D5088011E00A
:1004100008600FE02868011D29600068210502D5E9
:1004200080F8008006E0210702D5A0F8008001E0F6
:10043000C0F8008038467EE7202A04DB203A00FA24
:1004400002F1002070479140C2F1200320FA03F32B
:10045000194390407047202A04DB203A21FA02F029
:100460000021704721FA02F3D040C2F120029140EE
:100470000843194670473A2800D2303820F020024D
:10048000412A01D3A2F13700884201D34FF0FF3057
:1004900070470000026811441378016018467047E5
:1004A000D160044951610449116200211161114672
:1004B00000F03CB89504000821050008426842B1EC
:1004C000016811F8013B23B1521EC0E90012184621
:1004D00070470121C160881E704742685AB1C368E5
:1004E000016843B983688B4205D0491E521CC0E99C
:1004F0000012002070474FF0FF307047064C074D48
:1005000006E0E06840F0010394E8070098471034E3
:10051000AC42F6D3FFF764FE48F2010868F2010826
:10052000C0B24FF4F05100F097B900002DE9F34F3D
:100530008BB04FF0000801F10C000C464FF0010B9E
:1005400046460DF1080A0190626901210198904721
:10055000051E2DD0252D2CD0216A8847C0B1626997
:10056000012101989047216A88470028F7D1411E50
:1005700062690198904700E0761CA1690B98884752
:10058000216A88470028F7D1E1690B988847DBE7A3
:10059000A1690B9888470746A84201D1761CD3E78A
:1005A000E1690B9888477F1C02D1B8F1000F6FD02A
:1005B00046E1002762693D463946019890472A285E
:1005C00004D162690121019890470125DFF88492E6
:1005D0006269012101989047A0F130010A290AD2ED
:1005E0004F45E5DC07EB870100EB4107303FDFD4E7
:1005F00045F01005ECE7E90601D46FF000476C28E0
:100600000AD04C2814D0682815D06A280DD0742838
:100610001CD07A281AD01DE0626901210198904708
:100620006C2802D045F0040514E045F002050DE009
:1006300045F020050AE06269012101989047682889
:1006400002D045F0080505E045F400656269012126
:1006500001989047C4E9015765283DD019DC582816
:100660007AD00CDC452837D004DC252826D0412858
:1006700031D131E046282FD047282CD12CE05B28FF
:1006800077D0612828D063287CD0642823D15AE011
:10069000D0E06F2848D008DC66281DD067281BD022
:1006A000692821D06E2816D127E0702845D07328FC
:1006B00068D0752847D078280DD14DE0A1690B98F6
:1006C0008847054625283FF469AFE1690B988847BC
:1006D0006D1C3FF46AAFB3E023466A466FF0010039
:1006E0000B99AFF300809EE045F040006060A807E2
:1006F00023464FF0000236D43EE0E8077FF447AFD0
:100700002068011D21600068290501D506701BE7DE
:10071000290701D5068017E7A90703D5F117C0E916
:10072000006111E706600FE745F040006060A80730
:1007300023464FF0080216D41EE040F60E0125EACB
:100740000100606016E045F040006060A8072346A5
:100750004FF00A0207D40FE045F040006060A807A0
:1007600008D5234610226FF001000B99AFF30080EB
:1007700059E007E0234610226FF001000B99FFF7C4
:10078000B5FD50E04FF000094F464B46632802D0BC
:100790005B2806D040E0E80601D40120A0600127D4
:1007A0003AE062690121019890475E2805D14FF037
:1007B00001096269494601989047216939B90021C8
:1007C0000A46534643F82120491C0829FADBB0B3F6
:1007D000216969B9C11700EBD16253110AEB83019A
:1007E00022F01F02821A01200B68904003430B6025
:1007F00062690121019890475D28E8D1B9F1000FA5
:1008000009D00020514651F82020D24341F8202041
:10081000401C0828F7DB02AB224600976FF001006E
:100820000B99AFF3008000280CDA401C08D1BBF113
:10083000000F05D04FF0FF300DB0BDE8F08FFFE79F
:100840004046F9E7E90701D108F1010806444FF0F5
:10085000000B79E6CCCCCC0C7F2801D9002208E033
:10086000064A02EB5002C007127800D1120902F0CA
:100870000F020120904008407047000008F2010874
:1008800010B5034800F014FD024800F011FD10BD42
:10089000B40000202001002070B50546AC6AE06D70
:1008A00000F0500098BBE06D40F40070E0652068F7
:1008B000006800F00800A8B1206803F060FD10B3E4
:1008C0002068C06800F40050E8B9E06D20F4807042
:1008D000E065E06D00F48050A8B9E06D40F00100E3
:1008E000E06510E02068C06800F0020058B9E06DD3
:1008F00020F48070E065E06D00F4805018B9E06D80
:1009000040F00100E065204600F0CEFC0CE0FFE77F
:10091000E06D00F0100018B1204600F0C7FC03E0C5
:10092000606D416B2846884770BD70B50546AC6A5E
:10093000E06D40F04000E065206E40F0040020666D
:10094000204600F0B3FC70BD70B50446A56A284689
:1009500000F0ABFC70BD000070B50446206803F0E9
:10096000F0FC0646206803F0F1FC98B396BB2068C3
:10097000806800F00D0001280AD1206881681A4AB9
:100980001140891C816000BF03202168086009E0D4
:10099000E06D40F01000E065206E40F00100206640
:1009A000012070BD01F090FB054614E001F08CFBC6
:1009B000401B02280FD92068806800F0010050B168
:1009C000E06D40F01000E065206E40F00100206610
:1009D0000120E6E705E02068806800F001000028BB
:1009E000E4D10020DDE70000C0FFFF7F38B50446FA
:1009F00000200090206803F0A9FC00284FD1206857
:100A000080682849084048B1E06D40F01000E0657A
:100A1000206E40F001002066012038BD206803F000
:100A200075FC00BF2048806800F0E07000F4000012
:100A300080B11E4800681E49B0FBF1F0401C00EB7D
:100A400040008000009002E00098401E0090009856
:100A50000028F9D101F038FB05461AE0206803F0C0
:100A600075FC10B9206803F051FC01F02DFB401B10
:100A700002280ED92068006800F0010048B9E06D36
:100A800040F01000E065206E40F00100206601207B
:100A9000C3E72068006800F001000028DED00020D5
:100AA000BBE700003F000080000300501000002062
:100AB000400D030000BFFEE710B5024801F0B3F897
:100AC00010BD00003805002010B5024801F0ABF859
:100AD00010BD00008C01002010B5024801F0A3F801
:100AE00010BD0000EC01002010B5024801F09BF899
:100AF00010BD00004403002010B5024801F093F837
:100B000010BD0000E402002030B50E4D0468AC4278
:100B100001D20D4901E00C4920310B460478083C14
:100B20001425B4FBF5F2446CA40803EB840484643C
:100B3000054C8034C46402F01F050124AC400465F8
:100B400030BD0000080402400008024001794A1E3E
:100B5000064B03EB82024265044A403282654A1E1C
:100B600002F01F0301229A40C2657047000902404B
:100B700030B5D0E913546C60446D14B1D0E916540B
:100B80006C6090F8444004F01F050124AC40056CF3
:100B90006C60046863608468102C04D10468A260EF
:100BA0000468E16003E00468A1600468E26030BDAD
:100BB0007047002109E0002201E0531C9AB240F680
:100BC000B8339A42F9DB4B1C99B28142F3DB704790
:100BD00072B600BFFEE70000F8B504460D460020DF
:100BE000009000BF94F85800012801D10220F8BD00
:100BF000012084F8580000BF2046FFF7ADFE0646EE
:100C00008EBBE06D20F4885040F00200E065206863
:100C100081681B4A114005F0804242F000421143B6
:100C2000816000BF13E00098401C009015490098B7
:100C300088420CD3E06D20F0020040F01000E06527
:100C400000BF002084F8580000BF0120CFE72068D3
:100C50008168C90F0029E6D1E06D20F0020040F064
:100C60000100E06504E0FFE7E06D40F01000E065A2
:100C700000BF002084F8580000BF3046B7E70000EE
:100C8000C0FFFF3F02DE04007047704770477047A7
:100C9000704700002DE9F0439BB004460E464FF02C
:100CA0000008306800B100BF00BF94F85800012868
:100CB00003D102201BB0BDE8F083012084F8580066
:100CC00000BF0020179018902068B0F1A04F02D10B
:100CD0003148009001E000200090009850B9E06D8C
:100CE00040F02000E06500BF002084F8580000BFFD
:100CF0000120DFE7009803F03DFB0746206803F082
:100D000039FBD8BBD7BB254D306800B394F8380009
:100D1000716841EA4030A96821F460410843A86045
:100D20004FF0A04003F017FB81461B4803F013FB74
:100D300049EA0009B9F1000F27D1B16830680843CA
:100D4000A96840F61F7291430843A8601DE0A86897
:100D500020F46040A8604FF0A04003F0FCFA814608
:100D60000D4803F0F8FA49EA0009B9F1000F0CD177
:100D7000A86840F61F718843A86006E0FFE7E06DB1
:100D800040F02000E0654FF0010800BF002084F82B
:100D9000580000BF40468DE700010050000300509E
:100DA0002DE9F84F05460C464FF0000A0020009050
:100DB000FE49E068884200D000E000BF00BF95F81F
:100DC0005800012802D10220BDE8F88F012085F8E3
:100DD000580000BF286803F0C8FA00287DD12968B0
:100DE000D4E9002001F1300CC0F3012B0CEB8B0394
:100DF000D3F800C000F01F0E4FF01F0B0BFA0EFBD4
:100E00002CEA0B0C00F01F0BC2F3846E0EFA0BFEE3
:100E10004CEA0E0CC3F800C000BF286803F0A5FA26
:100E20008146286803F088FA8046B9F1000F64D142
:100E3000B8F1000FFBD1A068B0F1004F0AD12168D2
:100E40000022286803F0ACFA4FF00041286803F054
:100E5000CCFA08E0A2682168286803F0A1FA002112
:100E6000286803F0C2FA60692968C968C1F3C10142
:100E7000490000FA01F7206904283FD02868226859
:100E8000216900F1600C0CEB8103D3F800C0DFF89E
:100E900020B30CEA0B0C02F0F84B4BF0004B4BEA82
:100EA000070B4CEA0B0CC3F800C000BF2868A2690E
:100EB000216900F1600C0CEB8103D3F800C02CF029
:100EC000807C4CEA020CC3F800C000BF2868227F77
:100ED0002169012A02D1520601E0C6E1002213462F
:100EE00000F1600C0CEB8102D2F800C02CF0007C09
:100EF0004CEA030CC2F800C000BFA7E0002128683C
:100F000003F011FAC0F3120030B90021286803F091
:100F10000AFAC0F3846007E00021286803F003FAAE
:100F200090FAA0F0B0FA80F02168C1F3120119B96B
:100F30002168C1F3846104E0216891FAA1F1B1FA5A
:100F400081F1884204D100221146286803F042FA58
:100F50000121286803F0E7F9C0F3120030B901213C
:100F6000286803F0E0F9C0F3846007E001212868F5
:100F700003F0D9F990FAA0F0B0FA80F02168C1F33B
:100F8000120119B92168C1F3846104E0216891FA62
:100F9000A1F1B1FA81F1884204D10022012128682F
:100FA00003F018FA0221286803F0BDF9C0F312001B
:100FB00030B90221286803F0B6F9C0F3846007E075
:100FC0000221286803F0AFF990FAA0F0B0FA80F09F
:100FD0002168C1F3120119B92168C1F3846104E0E9
:100FE000216891FAA1F1B1FA81F1884204D100227D
:100FF0000221286803F0EEF90321286803F093F931
:10100000C0F3120030B90321286803F08CF9C0F353
:10101000846007E00321286803F085F990FAA0F0C6
:10102000B0FA80F02168C1F3120119B92168C1F347
:10103000846104E0216891FAA1F1B1FA81F188425A
:1010400004D100220321286803F0C4F9286803F0C2
:101050007DF9002872D12868E2682168D0F8B030A4
:10106000C1F3120C23EA0C0302F0180BDFF844C1A1
:101070002CFA0BFC0CEA010C43EA0C03C0F8B0306C
:1010800000BF4A49E068884258D12368C3F312037D
:101090001BB92368C3F3846304E0236893FAA3F3C2
:1010A000B3FA83F35B1C03F01F03092B3ED82368BC
:1010B000C3F312031BB92368C3F3846304E02368FA
:1010C00093FAA3F3B3FA83F35B1C03F01F034FF00F
:1010D000010C0CFA03FC2368C3F312031BB9236849
:1010E000C3F3846304E0236893FAA3F3B3FA83F3AE
:1010F0005B1C03F01F034CEA836C2368C3F31203E9
:101100001BB92368C3F3846304E0236893FAA3F351
:10111000B3FA83F35B1C03F01F0303EB43034FF0AD
:10112000000B4BEA03534CEA030347E02368C3F385
:10113000120323B92368C3F3846305E043E0236803
:1011400093FAA3F3B3FA83F35B1C03F01F034FF08E
:10115000010C0CFA03FC2368C3F312031BB92368C8
:10116000C3F3846304E0236893FAA3F3B3FA83F32D
:101170005B1C03F01F034CEA836C2368C3F3120368
:101180001BB92368C3F3846304E0236893FAA3F3D1
:10119000B3FA83F35B1C03F01F030A3B03EB430327
:1011A0004FF0007B4BEA035306E0000000007F4055
:1011B00000F0FF03FFFF07004CEA03031946A26893
:1011C000286803F0EDF82F492068084050B300BFAD
:1011D0002D48806800F0E07600BF2C4920688842E6
:1011E00003D02B49206888421DD106F40000D0B9F5
:1011F0002868B0F1A04F3ED146F40001224803F028
:10120000E3F8244800682449B0FBF1F0401C00EBEF
:1012100040008000009002E00098401E009000987E
:101220000028F9D127E01D49206888420CD106F03A
:10123000807048B91A49286888421CD046F08071ED
:10124000114803F0C1F816E016492068884212D10F
:1012500006F4800078B91249286888420BD046F419
:101260008001094803F0B0F805E0E86D40F0200087
:10127000E8654FF0010A00BF002085F8580000BF64
:101280005046A1E50000088000030050000021C383
:101290001000C09010000020400D0300000052C755
:1012A00000010050000084CB704770477047000079
:1012B0002DE9F84F0446002000902068056820685A
:1012C0004668C54803F02AF8074605F002000228E0
:1012D00011D106F0020002280DD1E06D00F01000DF
:1012E00018B9E06D40F40060E0652046FFF7CCFCE3
:1012F00002202168086005F00400042803D106F0EC
:101300000400042807D005F0080008285FD106F083
:10131000080008285BD1E06D00F0100018B9E06DFE
:1013200040F40070E065206803F029F8002848D0F8
:10133000AA492068884202D14FF0A04000E020680E
:101340002168884204D01FB1052F01D0092F03D195
:101350002068D0F80C800AE0A0492068884202D1B9
:101360004FF0A04000E020688346DBF80C8008F4D2
:101370000050B0F5005F24D02068006800F008003D
:1013800008281ED1206802F0F0FF90B9206840685C
:1013900020F00C0021684860E06D20F48070E0656A
:1013A000E06D00F4805060B9E06D40F00100E06550
:1013B00007E0E06D40F01000E065206E40F00100B5
:1013C00020662046FFF770FF0C202168086005F0BA
:1013D0002000202803D106F02000202807D005F0A7
:1013E0004000402872D106F0400040286ED1E06DE8
:1013F00000F0100018B9E06D40F40050E06520687E
:10140000C16C01F4C07109B9012100E000218A46D4
:1014100000BF206802F0B3FF81467049206888420F
:1014200002D14FF0A04000E020682168884204D03B
:101430001FB1062F01D0072F03D12068D0F80C80F0
:101440000AE066492068884202D14FF0A04000E0DF
:1014500020688346DBF80C80BAF1000F30D008F02A
:10146000007028B1B9F1000F2AD008F4005038BB41
:101470002068006800F04000402821D108F40010E6
:10148000F0B9206802F058FF90B92068406820F059
:10149000600021684860E06D20F48050E065E06DF8
:1014A00000F4807060B9E06D40F00100E06507E095
:1014B000E06D40F01000E065206E40F00100206615
:1014C0002046FFF7E2FB60202168086005F08000FD
:1014D00080280DD106F08000802809D1E06D40F40D
:1014E0008030E065204600F0A9F98020216808607E
:1014F00005F48070B0F5807F0FD106F48070B0F5F0
:10150000807F0AD1E06D40F40030E0652046FFF7AF
:10151000BEFB4FF480702168086005F40070B0F5E0
:10152000007F0FD106F40070B0F5007F0AD1E06DA6
:1015300040F48020E0652046FFF7AAFB4FF40070DE
:101540002168086005F0100010282AD106F010006C
:10155000102826D1E06B10B90120009010E047B1AF
:1015600000BF1D48806800F4604048B10120009031
:1015700006E02068C06800F0010008B1012000907A
:10158000009801280AD1E06D40F48060E065206E8B
:1015900040F0020020662046FFF788FE10202168F8
:1015A000086005F48060B0F5806F13D106F48060A8
:1015B000B0F5806F0ED1E06D40F48040E065206EA4
:1015C00040F0080020664FF48060216808602046E3
:1015D000FFF75CFBBDE8F88F0003005000010050EE
:1015E0002DE9F84304464FF000080020009014B99C
:1015F0000120BDE8F883606920B194F82400012837
:1016000000D100BFE06D30B9204600F019F900208C
:10161000206684F8580020688168C1F3407131B1B8
:10162000206881687E4A1140816000BF00BF206849
:1016300002F096FEB0B9206881687A4A114041F004
:101640008051816000BF784800687849B0FBF1F0B4
:10165000401C4000009002E00098401E009000985E
:101660000028F9D1206802F07BFE48B9E06D40F017
:101670001000E065206E40F0010020664FF0010888
:10168000206802F072FE0646E06D00F010000028AF
:1016900077D1002EFCD1E06D20F4807040F0020084
:1016A000E065206802F052FEB0B94FF0A04002F0B1
:1016B0004DFE81465E4802F049FE49EA0009B9F153
:1016C000000F09D160685B49896821F47C110143EE
:1016D000584A916000BF00BF607FE16B41EA403033
:1016E000E1680843A168084394F8241040EA0145E2
:1016F00094F82400012803D1208D401E45EA40457E
:10170000E06A28B1A08D00F47870216B084305438E
:101710002068C0684849084028432168C86020689C
:10172000006920F04060616B08432168086120680F
:1017300002F002FE0746002E50D1EFBB207F0021B1
:1017400041EA803194F8380041EA40052068C068D9
:1017500044F20201884328432168C860206988B1A7
:101760002068006940F48030216808612068D0F862
:10177000C0006FF30D00216908432168C1F8C00063
:101780000EE045E02068006920F48030216808619F
:101790002068D0F8C0006FF30D002168C1F8C000C8
:1017A00094F84000012813D1606C40F00101A06C56
:1017B0000843E16C084300E010E0216D0843216814
:1017C000096940F2FC72914308432168086105E011
:1017D0002068006920F00100216808616069012823
:1017E00009D12068006B20F00F00216A491E0843D0
:1017F0002168086305E02068006B20F00F00216875
:101800000863E06D20F0020040F00100E06505E0B3
:10181000E06D40F01000E0654FF001084046E8E65A
:10182000C0FFFF5FC0FFFF7F10000020400D0300DE
:1018300000010050000300500740F0FF7047000017
:1018400010B598B00446142113A8FEF719FD4421E1
:1018500002A8FEF715FD2068B0F1A04F5FD14FF44C
:10186000004002908003119002A800F099FD08B199
:10187000FFF7AEF95D480068401C5C490860084607
:10188000006801280DD100BF5948C06C40F40050D9
:101890005749C8640846C06C00F40050019000BF6E
:1018A00000BF00BF5248C06C40F002005049C864FD
:1018B0000846C06C00F00200019000BF00BF881411
:1018C0001390032014900020159013A9494800F0AC
:1018D00007FB4948494908600520486000214748FE
:1018E0008160C1608021016189004161890081615D
:1018F0002021C161C901016200F014FA08B1FFF7AB
:1019000067F900BF3D486065846200BF0022022184
:10191000122000F05DFC122000F046FC63E0384924
:10192000206888425FD1C00102908003119002A814
:1019300000F036FD08B1FFF74BF92C480068401C59
:101940002A4908600846006801280DD100BF2848D0
:10195000C06C40F400502649C8640846C06C00F4CE
:101960000050019000BF00BF00BF2148C06C40F094
:1019700002001F49C8640846C06C00F002000190D4
:1019800000BF00BF4FF400401390032014900020CC
:10199000159013A9174800F0A3FA174814301949F5
:1019A000086024204860002116488160C1608021C1
:1019B000016189004161890081612021C161C90102
:1019C000016200F0AFF908B1FFF702F900BF0D485E
:1019D0006065846200BF00220221122000F0F8FB43
:1019E000122000F0E1FB18B010BD00000000002044
:1019F00000100240000400481C0002408C0100203E
:101A000000010050EC0100202DE9F04104460F4692
:101A100090463D4802F082FC0646206802F0A5FC94
:101A200000286DD100BF94F85800012802D102208F
:101A3000BDE8F081012084F8580000BF1EB1052EDA
:101A400001D0092E56D12046FEF7D0FF0546002DC5
:101A50004BD1E06D40F60161884340F48070E06551
:101A60002A492068884202D14FF0A04000E0206857
:101A70002168884200D01EB9E06D20F48010E06536
:101A8000E06D00F4805020B1206E20F0060020664A
:101A900001E0002020661E48616DC8621D48616D2E
:101AA00008631D48616D48631C202168086000BF01
:101AB000002084F8580000BF2068406840F0100003
:101AC000216848602068C06840F001002168C86053
:101AD000226802F1400143463A46606D00F08AF9FF
:101AE0000546206802F054FC0BE000BF002084F89B
:101AF000580006E0012500BF002084F8580000E0EF
:101B00000225284694E70000000300500001005021
:101B100099080008490900082B090008014600201F
:101B200091F82520022A03D00422CA63012027E06D
:101B30000A68126822F00E020B681A608A6C12683A
:101B400022F480728B6C1A600A68126822F001021B
:101B50000B681A6091F8442002F01F0301229A409A
:101B60000B6C5A60D1E913325A604A6D42B14A6D2A
:101B7000126822F480724B6D1A60D1E916325A60F5
:101B8000012281F8252000BF002281F8242000BF17
:101B9000704770B50446002594F8250002280BD044
:101BA0000420E063012084F8250000BF002084F8B1
:101BB000240000BF012534E02068006820F00E00FA
:101BC000216808602068006820F001002168086032
:101BD000A06C006820F48070A16C086094F8440048
:101BE00000F01F0101208840216C4860D4E91310E7
:101BF0004860606D40B1606D006820F48070616D78
:101C00000860D4E916104860012084F8250000BF60
:101C1000002084F8240000BFA06B10B12046A16B07
:101C20008847284670BD70B50446206C056820685A
:101C3000066894F8440000F01F0104208840284002
:101C4000E0B106F00400C8B12068006800F0200090
:101C500028B92068006820F004002168086094F822
:101C6000440000F01F0104208840216C4860206B74
:101C7000002856D02046216B884752E094F8440053
:101C800000F01F0102208840284018B306F002002F
:101C900000B32068006800F0200040B920680068A8
:101CA00020F00A0021680860012084F8250094F8DB
:101CB000440000F01F0102208840216C486000BFF2
:101CC000002084F8240000BFE06A50B32046E16A97
:101CD000884726E094F8440000F01F01082088405F
:101CE0002840F0B106F00800D8B12068006820F064
:101CF0000E002168086094F8440000F01F010120E4
:101D00008840216C48600120E06384F8250000BF12
:101D1000002084F8240000BF606B10B12046616B86
:101D2000884770BD70B504460CB9012070BD2F49BD
:101D3000206888420BD22E492068401A1421B0FB3B
:101D4000F1F0800060642A48083820640AE02749DE
:101D50002068401A1421B0FBF1F080006064234831
:101D600008382064022084F825002068056847F6BA
:101D7000F0708543D4E90201084321690843616991
:101D80000843A1690843E1690843216A0843054300
:101D9000206805602046FEF7B7FEA068B0F5804FCA
:101DA00001D1002060602079A16C0860D4E9131093
:101DB0004860606860B16068042809D82046FEF772
:101DC000C5FE0020616D0860D4E91610486003E08C
:101DD00000206065A065E0650020E063012084F8D4
:101DE0002500002084F8240000BF9FE7080402407B
:101DF000080002402DE9F04104460D4616461F46F4
:101E00004FF0000800BF94F82400012802D10220FE
:101E1000BDE8F081012084F8240000BF94F825007B
:101E200001283FD1022084F825000020E0632068CB
:101E3000006820F00100216808603B4632462946D0
:101E40002046FEF795FE206B30B12068006840F018
:101E50000E00216808600BE02068006820F0040094
:101E6000216808602068006840F00A002168086066
:101E7000A06C006800F4803028B1A06C006840F4C9
:101E80008070A16C0860606D28B1606D006840F4DE
:101E90008070616D08602068006840F00100216872
:101EA000086006E000BF002084F8240000BF4FF067
:101EB00002084046ACE7000070B5044600F004F9A3
:101EC00006462546681C10B104480068054400BF5A
:101ED00000F0FAF8801BA842FAD370BD0C00002075
:101EE00078B502460B460021CAE001268E401D68E7
:101EF00005EA0604002C73D01D7905F00305012DB9
:101F000004D01D7905F00305022D13D190684E0011
:101F10000325B540A8434E00DD68B54028439060D6
:101F2000506801258D40A8431D79C5F300158D40EB
:101F3000284350601D7905F00305032D09D0D068B2
:101F40004E000325B540A8434E009D68B540284388
:101F5000D0601D7905F00305022D13D1CE0802F1E2
:101F6000200555F826004D07EE0E0F25B540A84375
:101F70004E07F60E1D69B5402843CE0802F1200534
:101F800045F8260010684E000325B540A8431D798A
:101F900005F003054E00B540284310605D6805F468
:101FA0004035002D6BD000BF384D2D6E45F001053A
:101FB000364E356635462D6E05F00105009500BF9D
:101FC00000BF4FEAB6358E0855F826008D072E0F54
:101FD0000F25B540A843B2F1904F02D100251AE079
:101FE0004DE02B4DAA4201D1012514E0294DAA4212
:101FF00001D102250FE0284DAA4201D103250AE0B4
:10200000264DAA4201D1042505E0254DAA4201D161
:10201000052500E006258E07360FB5402843214DE3
:102020008E0845F82600204D2868A0435D6805F419
:10203000801505B120431C4D28602D1D2868A04344
:102040005D6805F4001505B12043174D2D1D28606E
:10205000154D2D1F2868A0435D6805F4003505B1B6
:102060002043114D2D1F28602D1F2868A0435D6857
:1020700005F4803505B120430B4D083D2860491C0F
:102080001D68CD40002D7FF430AF78BD00100240B8
:102090000004004800080048000C004800100048F8
:1020A000001400480800014008040140024613697A
:1020B0000B400BB1012000E0002070470AB18161A4
:1020C00000E081627047000001480068704700002E
:1020D00004000020034800680349096808440149D6
:1020E00008607047040000200C00002010B5002498
:1020F000032000F0ABF8002000F008F808B101243C
:1021000001E000F02FF8204610BD000070B5044635
:10211000002511480068D8B10F4800684FF47A7163
:10212000B1FBF0F00D490968B1FBF0F6304600F064
:1021300025FF58B9102C07D200222146501E00F06E
:1021400047F80748046004E0012502E0012500E0AB
:102150000125284670BD00000C0000201000002062
:102160000800002008B500BF0E48006E40F00100D6
:102170000C4908660846006E00F00100009000BFA0
:1021800000BF00BF0846806D40F08050886508465B
:10219000806D00F08050009000BF00BF00F0F6F8A6
:1021A00008BD0000001002400146084600280DDB73
:1021B00000BF00BF00F01F0301229A4043099B00AB
:1021C00003F1E023C3F8002100BF00BF00BF704748
:1021D0002DE9F05F80460D46164604F08BF8074661
:1021E00039462A46334601F00700C0F1070ABAF122
:1021F000040F02D94FF0040A01E0C0F1070AD146EA
:1022000000F1040ABAF1070F02D24FF0000A01E010
:10221000A0F1030AD4464FF0010A0AFA09FAAAF11A
:10222000010A0AEA020A0AFA0CFA4FF0010B0BFA49
:102230000CFBABF1010B0BEA030B4AEA0B04214642
:10224000404604F05FF8BDE8F09F000000BF00F0DA
:102250000702064B19684FF6FF031940044B0B4366
:1022600043EA0221014B196000BF70470CED00E00A
:102270000000FA0502468ABB4148006800F4C060CD
:10228000B0F5806F2BD13E488030006820F480701C
:102290003B4BC3F880001846006820F4C06040F44F
:1022A000007018603748006832235843364BB0FB43
:1022B000F3F0411C00E0491E3148406900F48060A1
:1022C000B0F5806F01D10029F5D12D48406900F4A7
:1022D0008060B0F5806F51D10320704708E0284836
:1022E0008030006820F48070254BC3F8800045E002
:1022F000B2F5007F3AD12248006800F4C060B0F522
:10230000806F2AD11E488030006840F480701C4BDA
:10231000C3F880001846006820F4C06040F40070E4
:1023200018601848006832235843174BB0FBF3F08D
:10233000411C00E0491E1248406900F48060B0F57D
:10234000806F01D10029F5D10D48406900F480600B
:10235000B0F5806F12D10320BFE7094880300068D4
:1023600040F48070064BC3F8800007E00448006822
:1023700020F4C06040F48060014B18600020ACE79E
:10238000007000401000002040420F0003488068A9
:1023900040F48040014988607047000000700040B0
:1023A0002DE9F84304460027B846206800F40020D1
:1023B000B0F5002F73D1B946D348806D00F080503E
:1023C00078B900BFD048806D40F08050CE49886514
:1023D0000846806D00F08050009000BF00BF4FF0B5
:1023E0000109CA48006840F48070C8490860FFF7D6
:1023F0006BFE064606E0FFF767FE801B022801D948
:10240000032705E0C148006800F480700028F2D07E
:1024100000BF002F46D1BC489030006800F44075E2
:10242000CDB1206CA84216D0B7489030006820F497
:102430004075B548D0F8900040F48030B249C1F8FA
:1024400090000846D0F8900020F48030C1F8900049
:102450000846C0F8905005F00100A0B1FFF734FE27
:10246000064608E0FFF730FE801B41F288318842C3
:1024700001D9032706E0A4489030006800F002006C
:102480000028EFD000BF5FB99F489030006820F46B
:102490004070216C08439C49C1F8900003E00CE0B7
:1024A000B84600E0B846B9F1010F05D19648806DF5
:1024B00020F080509449886500BF207800F001002A
:1024C00048B191488830006820F0030061680843F3
:1024D0008D49C1F88800207800F00200022809D157
:1024E00089488830006820F00C00A16808438649BC
:1024F000C1F88800207800F00400042809D182483F
:102500008830006820F03000E16808437E49C1F857
:102510008800207800F00800082809D17A4888301F
:10252000006820F0C000216908437749C1F888009D
:10253000207800F02000202809D1734888300068F6
:1025400020F44060616908436F49C1F88800207831
:1025500000F04000402809D16B488830006820F422
:102560004050A16908436849C1F88800207800F00C
:102570008000802809D164488830006820F44040F9
:10258000E16908436049C1F88800208800F4807040
:10259000B0F5807F09D15C488830006820F4403075
:1025A000216A08435849C1F88800208800F4007067
:1025B000B0F5007F09D154488830006820F44020ED
:1025C000616A08435049C1F88800208800F480609F
:1025D000B0F5806F13D14C488830006820F440106B
:1025E000A16A0843484988310860A06AB0F5801F95
:1025F00005D14548C06840F480104349C860208830
:1026000000F40060B0F5006F13D13F4888300068D7
:1026100020F44000E16A08433B4988310860E06AE1
:10262000B0F5800F05D13848C06840F480103649B5
:10263000C860208800F48050B0F5805F13D1324824
:102640008830006820F04070216B08432E498831A3
:102650000860206BB0F1807F05D12B48C06840F442
:1026600080102949C860208800F40050B0F5005F50
:1026700013D125488830006820F04060616B084322
:10268000214988310860606BB0F1006F05D11E48A8
:10269000C06840F480101C49C860208800F4804065
:1026A000B0F5804F13D118488830006820F04060A2
:1026B000A16B0843144988310860A06BB0F1006F2A
:1026C00005D11148C06840F480100F49C8602088C7
:1026D00000F40040B0F5004F13D10B48883000687B
:1026E00020F04050E16B0843074988310860E06BF7
:1026F000B0F1805F05D10448C06840F480300249E1
:10270000C8604046BDE8F8830010024000700040F9
:102710002DE9F04104460D464FF0000814B90120A0
:10272000BDE8F0817D48006800F00F00A8420ED29D
:102730007A48006820F00F0028437849086008466E
:10274000006800F00F00A84201D00120E8E72078DF
:1027500000F00100002864D06068032823D170488D
:10276000006800F0007008B90120D9E702F0EAF82B
:1027700006466C48864237D96948806800F0F00008
:1027800030B1207800F0020002282DD1A06858BB9B
:102790006348806820F0F00040F080006049886065
:1027A0004FF0800820E06068022806D15C4800688D
:1027B00000F4003040B90120B2E75948006800F445
:1027C000806008B90120ABE700F0DEF80646554806
:1027D000864209D95248806820F0F00040F080001D
:1027E0004F4988604FF080084D48806820F0030012
:1027F000616808434A498860FFF766FC074608E0BD
:10280000FFF762FCC01B41F28831884201D90320E6
:1028100086E74348806800F00C006168B0EB810FE8
:10282000EED1207800F00200022820D1207800F0BC
:102830000400042805D13A48806840F4E060384933
:102840008860207800F00800082807D134488068A4
:1028500020F4605040F4E06031498860304880687E
:1028600020F0F000A16808432D49886008E0B8F125
:10287000800F05D12A48806820F0F0002849886040
:102880002648006800F00F00A84219D923480068C4
:1028900020F00F00284321490860FFF715FC074688
:1028A00008E0FFF711FCC01B41F28831884201D9D2
:1028B000032035E71948006800F00F00A842F0D166
:1028C000207800F00400042807D11548806820F41F
:1028D000E060E168084312498860207800F0080051
:1028E000082808D10E48806820F46050216940EA29
:1028F000C1000B49886000F047F809498968C1F3B5
:102900000311094A515C01F01F01C84007490860E2
:1029100007480068FFF7FAFB02E7000000200240CA
:102920000010024000B4C404F0F1010810000020BF
:1029300008000020014800687047000010000020D7
:1029400000B5FFF7F7FF05498968C1F30221044A82
:10295000515C01F01F01C84000BD000000100240A2
:1029600000F2010800B5FFF7E5FF05498968C1F3EA
:10297000C221044A515C01F01F01C84000BD0000A3
:102980000010024000F2010870B5224DAD6805F05C
:102990000C05042D01D120483AE01E4DAD6805F02C
:1029A0000C05082D01D11D4832E01A4DAD6805F027
:1029B0000C050C2D2BD1174DED6805F00304154DBA
:1029C000ED68C5F303156A1C022C0CD0032C09D149
:1029D000124DB5FBF2F50F4EF668C6F3062605FB61
:1029E00006F10AE000BF0C4DB5FBF2F5094EF668A2
:1029F000C6F3062605FB06F100BF00BF054DED68D6
:102A0000C5F341656D1C6B00B1FBF3F000E00020E5
:102A100070BD0000001002400024F40000366E017A
:102A20002DE9F843044614B90120BDE8F883207865
:102A300000F00100002865D0FC48806800F00C0719
:102A4000FA48C06800F003060C2F01D1032E01D014
:102A5000082F0AD1F548006800F40030002851D052
:102A6000606800284ED10120DFE700BF6068B0F544
:102A7000803F06D1ED48006840F48030EB490860A3
:102A80001AE06068B0F5A02F0BD1E848006840F468
:102A90008020E64908600846006840F480300860FD
:102AA0000AE0E248006820F48030E0490860084607
:102AB000006820F48020086000BF606888B1FFF7DC
:102AC00003FB054606E0FFF7FFFA401B642801D927
:102AD0000320AAE7D548006800F400300028F2D0AF
:102AE00010E0FFF7F1FA054606E0FFF7EDFA401BAC
:102AF000642801D9032098E7CC48006800F400302E
:102B00000028F2D1207800F00200022860D1C748E6
:102B1000806800F00C07C548C06800F003060C2F61
:102B200001D1022E01D0042F18D1C048006800F452
:102B3000806018B1E06808B9012076E7BB484068BA
:102B400020F0FE40217C40EA0160B8494860B84866
:102B50000068FFF7DBFA18B3012066E7E06800B30E
:102B6000B248006840F48070B0490860FFF7ACFAE2
:102B7000054606E0FFF7A8FA401B022801D903200A
:102B800053E7AA48006800F480600028F2D0A74804
:102B9000406820F0FE40217C40EA0160A349486083
:102BA00016E0A248006820F48070A0490860FFF792
:102BB0008BFA054606E0FFF787FA401B022801D989
:102BC000032032E79948006800F480600028F2D1C1
:102BD000207800F00800082836D16069D0B1934809
:102BE0009430006840F001009049C1F89400FFF76C
:102BF0006BFA054606E0FFF767FA401B022801D989
:102C0000032012E789489430006800F00200002891
:102C1000F1D019E085489430006820F00100834924
:102C2000C1F89400FFF750FA054606E0FFF74CFAAA
:102C3000401B022801D90320F7E67C489430006845
:102C400000F002000028F1D1207800F004000428F0
:102C500072D14FF000087548806D012121EA107093
:102C600078B100BF7148806D40F080506F49886531
:102C70000846806D00F08050009000BF00BF4FF00C
:102C800001086C48006800F48070B0B969480068B9
:102C900040F4807067490860FFF716FA054606E0C1
:102CA000FFF712FA401B022801D90320BDE6614854
:102CB000006800F480700028F2D000BFA0680128EE
:102CC00008D15A489030006840F001005749C1F8D7
:102CD000900021E0A06805280FD15448903000688A
:102CE00040F004005149C1F890000846D0F8900027
:102CF00040F00100C1F890000EE04C4890300068B0
:102D000020F001004949C1F890000846D0F8900031
:102D100020F00400C1F8900000BFA068A8B1FFF740
:102D2000D3F9054609E0FFF7CFF9401B41F288319E
:102D3000884202D9032078E625E03C4890300068BC
:102D400000F002000028EED013E0FFF7BDF90546C1
:102D500008E0FFF7B9F9401B41F28831884201D9F8
:102D6000032062E631489030006800F0020000283D
:102D7000EFD1B8F1010F05D12C48806D20F08050C3
:102D80002A49886500BF207800F02000202836D12D
:102D9000A069D0B125489830006840F0010023496F
:102DA000C1F89800FFF790F9054606E0FFF78CF9A7
:102DB000401B022801D9032037E61C4898300068E0
:102DC00000F002000028F1D019E01848983000689F
:102DD00020F001001549C1F89800FFF775F9054684
:102DE00006E0FFF771F9401B022801D903201CE619
:102DF0000E489830006800F002000028F1D1E06928
:102E0000002860D00948806800F00C000C287AD0B7
:102E1000E069022858D10548006820F08070034915
:102E20000860FFF751F905460DE000000010024070
:102E30000800002000700040FFF746F9401B022800
:102E400001D90320F1E54A48006800F0007000282D
:102E5000F2D1D4E90810401E41EA0011A06A41EA0B
:102E60000021208E0122C2EB500041EA4051342063
:102E7000005DC2EB500041EA40612C20005D41EA58
:102E8000C0603B49C9683B4A114008433849C860A3
:102E90000846006840F0807008600846C06840F04E
:102EA0008070C860FFF710F9054606E0FFF70CF9DF
:102EB000401B022801D90320B7E52D48006800F027
:102EC00000700028F2D051E02948006820F080709E
:102ED00027490860FFF7F8F8054606E0FFF7F4F821
:102EE000401B022801D903209FE52148006800F01B
:102EF00000700028F2D11E48C0681F4908401C49D4
:102F0000C86033E0FFE7E069012800D18DE518488B
:102F1000C66806F00301206A814225D106F0F0015F
:102F2000606A401EB1EB001F1ED106F4FE41A06A8C
:102F3000B1EB002F18D106F078412C20005DB1EBE9
:102F4000C06F11D106F4C001208E0122C2EB5000E7
:102F5000B1EB405F08D106F0C0613420005DC2EBE8
:102F60005000B1EB406F01D001205EE500205CE530
:102F7000001002400C809F01FCFFEEFE70B504467D
:102F80002546681EB0F1807F01D301200FE0681E46
:102F90004FF0E02148610F214FF0FF3003F0B2F90C
:102FA00000204FF0E021886107200861002070BDFB
:102FB00030B502460B4600BF92F83C00012801D113
:102FC000022030BD012082F83C0000BF022082F8C0
:102FD0003D0010684168106884681D4D1068A84263
:102FE00003D01C4D1068A84203D121F47001586829
:102FF0000143194801401868014310684160144DAD
:103000001068A84213D01068B0F1804F0FD0134D54
:103010001068A8420BD0124D1068A84207D00D4D81
:103020001068A84203D00F4D1068A84205D124F0C3
:1030300080049868044310688460012082F83D0091
:1030400000BF002082F83C0000BF00BFB9E70000CD
:10305000002C0140003401408FFFFFFD00040040C0
:10306000000800400040014010B504460CB90120A2
:1030700010BD94F83D0028B9002084F83C0020469B
:1030800000F02AF8022084F83D00211D206801F09C
:1030900061FE012084F8480000BF84F83E00012151
:1030A0003F20015540200155412001554220015546
:1030B0004320015500BF00BF012084F84400452093
:1030C0000155462001554720015500BF012084F8D5
:1030D0003D000020CCE7000010B586B00446142166
:1030E00001A8FDF7CDF82068B0F1804F47D100BFAF
:1030F0004948806D40F00100474988650846806D69
:1031000000F00100009000BF00BF00BF0846C06C87
:1031100040F00100C8640846C06C00F00100009057
:1031200000BF00BF4FF40040019002200290002039
:10313000039004900120059001A94FF09040FEF704
:10314000CFFE3648364908603820486000213448B0
:103150008160C160802101618900416189008161D4
:103160002021C16100210162FEF7DCFD08B1FDF7FD
:103170002FFD00BF2A4961620846846249E029495F
:103180002068884245D100BF2348806D40F002008E
:10319000214988650846806D00F00200009000BF5C
:1031A00000BF00BF0846C06C40F00200C86408467B
:1031B000C06C00F00200009000BF00BF1020019022
:1031C000022002900020039004900220059001A9A3
:1031D0001548FEF785FE1548154908603D204860F2
:1031E000002113488160C160802101618900416133
:1031F000890081612021C16100210162FEF792FDF9
:1032000008B1FDF7E5FC00BF094961620846846228
:1032100000BF06B010BD0000001002404404024090
:10322000E402002000040040000400484400024082
:10323000440300202DE9F04104460D46002700BF5D
:1032400094F83C00012802D10220BDE8F081012061
:1032500084F83C0000BF022084F83D0020688668A6
:103260003F48064026F47F4620688660286870281C
:1032700024D00CDC00F00F01002964D100110728D4
:1032800061D2DFE800F05354555649353F00354AC6
:10329000811A90424FD009DCB0F5805F0DD0B0F5B7
:1032A000005F18D0B0F1101F4DD143E0102943D07A
:1032B000202942D0502946D140E046E0D5E902130A
:1032C0006A68206801F049FE2068866846F0770643
:1032D0002068866039E0D5E902136A68206801F049
:1032E0003CFE2068806840F48040216888602CE0C3
:1032F000EA686968206801F0C9FE5021206801F081
:1033000037FE22E0EA686968206801F011FF602159
:10331000206801F02DFE18E0EA686968206801F075
:10332000B5FE4021206801F023FE0EE000BF00BF83
:1033300000BF00BF00BF00BF00BF00BF29682068FA
:1033400001F016FE01E0012700BF00BF012084F854
:103350003D0000BF002084F83C0000BF384674E701
:1033600088FFCEFF200010007047704770472DE99E
:10337000F04104460D461646002700BF94F83C0075
:10338000012802D10220BDE8F081012084F83C0030
:1033900000BF96B9EB68D5E90012206801F08AFEFB
:1033A0002068806920F00C002168886120688069AD
:1033B000A96808432168886141E0042E13D1EB68B5
:1033C000D5E90012206801F0C7FE2068806920F46A
:1033D00040602168886120688069A96840EA01200E
:1033E000216888612BE0082E12D1EB68D5E9001224
:1033F000206801F0CEFE2068C06920F00C00216832
:10340000C8612068C069A96808432168C86116E0DE
:103410000C2E13D1EB68D5E90012206801F0D5FE1F
:103420002068C06920F440602168C8612068C069D4
:10343000A96840EA01202168C86100E0012700BFB7
:10344000002084F83C0000BF38469CE710B50446D5
:103450000CB9012010BD94F83D0028B9002084F873
:103460003C00204600F029F8022084F83D00211D90
:10347000206801F06FFC012084F8480000BF84F848
:103480003E0001213F2001554020015541200155BA
:10349000422001554320015500BF00BF012084F8A0
:1034A000440045200155462001554720015500BFE5
:1034B000012084F83D000020CCE770472DE9F05F43
:1034C00004460D46174698464FF0000B15B994F880
:1034D0003E0015E0042D02D13F20005D10E0082DD4
:1034E00002D14020005D0BE00C2D02D14120005D97
:1034F00006E0102D02D14220005D01E04320005D76
:10350000814615B994F844000BE0042D02D1452002
:10351000005D06E0082D02D14620005D01E0472055
:10352000005D8246B9F1020F02D0BAF1020F02D15A
:103530000220BDE8F09FB9F1010F3DD1BAF1010FB2
:103540003AD117B1B8F1000F01D10120F1E71DB94F
:10355000022084F83E001AE0042D03D102213F200E
:10356000015514E0082D03D10221402001550EE041
:103570000C2D03D102214120015508E0102D03D16B
:1035800002214220015502E00221432001551DB9CC
:10359000022084F8440011E0042D03D102214520CB
:1035A00001550BE0082D03D102214620015505E00D
:1035B00002214720015501E00120BAE701222946F6
:1035C000206801F02DFC35B1042D1FD0082D38D016
:1035D0000C2D6CD150E05049606AC1624F49606A5D
:1035E00001634F49606A4163226802F13401434636
:1035F0003A46606AFEF7FEFB08B1012099E72068B1
:10360000C06840F400702168C86053E04249A06A75
:10361000C1624249A06A01634149A06A41632268CC
:1036200002F1380143463A46A06AFEF7E3FB08B1CF
:1036300001207EE72068C06840F480602168C8608F
:1036400038E03549E06AC1623449E06A01633449CF
:10365000E06A4163226802F13C0143463A46E06A6F
:10366000FEF7C8FB08B1012063E72068C06840F49A
:1036700000602168C8601DE02749206BC1622749AE
:10368000206B01632649206B4163226802F14001EF
:1036900043463A46206BFEF7ADFB08B1012048E7F0
:1036A0002068C06840F480502168C86002E04FF094
:1036B000010B00BF00BF1B492068884213D020685F
:1036C000B0F1804F0FD01849206888420BD01749BD
:1036D0002068884207D016492068884203D01549DF
:1036E0002068884210D120688068134900EA0106EA
:1036F000062E0FD0B6F5803F0CD02068006840F051
:1037000001002168086005E02068006840F00100C1
:103710002168086058460CE7434E0008BD4E00087B
:10372000FD4E0008002C014000040040000800404D
:1037300000340140004001400700010070B504461C
:103740000D4600BF94F83C00012801D1022070BD55
:10375000012084F83C0000BF022084F83D00294687
:10376000204601F011FC48B1012084F83D0000BF63
:10377000002084F83C0000BF0120E8E72068C06812
:1037800020F040002168C8602068C06820F48040B4
:103790002168C860012084F83D0000BF002084F843
:1037A0003C0000BF00BFD2E7014600BF91F8840093
:1037B000012801D102207047012081F8840000BF58
:1037C0002420C1F88800086802680868006820F0B2
:1037D00001000B68186022F000520020486608685B
:1037E00002602020C1F8880000BF002081F884001A
:1037F00000BF00BFDFE72DE9F04104460E46174643
:10380000D4F88C00202825D106B117B90120BDE8D5
:10381000F0810120E066002020673A4631462046CC
:1038200002F0E6FB05469DB9E06E01280FD110209D
:103830002168086200BF00BF216851E8001F41F005
:103840001000226842E800010029F5D100E00125BE
:103850002846DCE70220DAE770B505460C46074843
:1038600003F0FCF920B922460549044803F020FA88
:1038700080210348FCF704FD70BD0000D80500203E
:1038800024040020704770B504460D4600BF94F82C
:103890008400012801D1022070BD012084F8840039
:1038A00000BF2420C4F888002068066820680068EB
:1038B00020F00100216808602068806820F06060C6
:1038C000284321688860204601F09EFC206806603D
:1038D0002020C4F8880000BF002084F8840000BFC6
:1038E00000BFD9E770B504460D4600BF94F88400C8
:1038F000012801D1022070BD012084F8840000BF9E
:103900002420C4F88800206806682068006820F039
:103910000100216808602068806820F0604028432A
:1039200021688860204601F06FFC20680660202036
:10393000C4F8880000BF002084F8840000BF00BFE6
:10394000D9E77047704770472DE9F0470446206873
:10395000C569206806682068876840F60F0005EA98
:103960000009B9F1000F0FD105F0200060B106F099
:10397000200010B907F0805030B1606F10B12046C0
:10398000616F8847BDE8F087B9F1000F7ED0D44859
:10399000384018B9D34830400028F7D005F001006E
:1039A00058B106F4807040B1012021680862D4F853
:1039B000900040F00100C4F8900005F0020058B1FA
:1039C00007F0010040B1022021680862D4F890009D
:1039D00040F00400C4F8900005F0040058B107F06E
:1039E000010040B1042021680862D4F8900040F042
:1039F0000200C4F8900005F0080070B106F0200045
:103A000010B9B748384040B1082021680862D4F89E
:103A1000900040F00800C4F8900005F4006060B128
:103A200006F0806048B14FF4006021680862D4F865
:103A3000900040F02000C4F89000D4F890000028D6
:103A400052D005F0200050B106F0200010B907F068
:103A5000805020B1606F10B12046616F8847D4F864
:103A600090A02068806800F04000402802D00AF052
:103A7000280070B3204601F08DFD2068806800F0BA
:103A80004000402826D100BF00BF00E02DE02168A3
:103A9000083151E8001F21F040002168083141E859
:103AA0000002002AF1D100BFD4F8800068B18E482E
:103AB000D4F880108863D4F88000FEF76AF898B1D3
:103AC000D4F88000816B88470EE02046FFF73BFF6B
:103AD0000AE003E02046FFF736FF05E02046FFF747
:103AE00032FF0020C4F890004CE7E06E012865D159
:103AF00005F01000002861D006F010000028FAD070
:103B00001020216808622068806800F0400040288A
:103B100065D1D4F88000006840681FFA80F8B8F1D9
:103B2000000F5BD0B4F85C00404557DDA4F85E8020
:103B3000D4F880000068006800F02000E8BB00BFF7
:103B400000BF216851E8001F21F48070226842E81C
:103B500000010029F5D100BF00BF00BF2168083176
:103B600051E8001F21F001002168083141E80002FE
:103B7000002AF3D100BF00BF00BF2168083151E81F
:103B8000001F21F040002168083141E80002002AAE
:103B9000F3D100BF2020C4F88C000020E06600BFF5
:103BA00000BF216851E8001F21F01000226842E8A0
:103BB00000010029F5D100BF01E004E053E0D4F892
:103BC0008000FDF7ABFF02202067B4F85C00B4F87A
:103BD0005E20801A81B22046FFF73EFED2E634F81E
:103BE0005C0F6188401A1FFA80F860885C3CC8B39B
:103BF000B8F1000F36D000BF00BF216851E8001FA8
:103C000021F49070226842E800010029F5D100BF3C
:103C100000BF00BF2168083151E8001F304AD2437D
:103C200001EA02002168083141E80002002AF1D1CE
:103C300000BF2020C4F88C000020E066606700BF51
:103C400000BF216851E8001F21F01000226842E8FF
:103C500000010029F5D100BF02202067414620461F
:103C6000FFF7FAFD8EE605F4801050B107F48000EE
:103C700038B14FF48010216808622046FFF762FED9
:103C800080E605F0800058B106F0800010B907F416
:103C9000000028B1A06F10B12046A16F884771E6DF
:103CA00005F0400030B106F0400018B1204601F0A8
:103CB000A7FC67E605F4000030B106F0804018B1BB
:103CC0002046FFF73EFE5DE605F0807030B106F05D
:103CD000004018B12046FFF7D5FD53E600BF51E67E
:103CE00001000010200100044354000810B50446F0
:103CF0000CB9012010BDA06900B100E000BFD4F8EC
:103D0000880028B9002084F88400204600F02AF8B2
:103D10002420C4F888002068006820F00100216891
:103D20000860A06A10B1204601F09AFA204601F01E
:103D30009DFF012800D1DDE72068406820F4904015
:103D4000216848602068806820F02A002168886027
:103D50002068006840F0010021680860204601F0FA
:103D6000FBFAC7E710B598B00446142113A8FCF776
:103D700087FA442102A8FCF783FA2F492068884279
:103D800058D1012002900020039002A8FEF708FB02
:103D900008B1FCF71DFF00BF2848006E40F48040CA
:103DA000264908660846006E00F48040019000BF76
:103DB00000BF00BF0846C06C40F00100C864084660
:103DC000C06C00F00100019000BF00BF4FF4C06064
:103DD0001390022014900020159016900720179041
:103DE00013A94FF09040FEF77BF81548154908607D
:103DF00018204860002113488160C1608021016162
:103E0000002141618161C1614FF400510162FDF700
:103E100089FF08B1FCF7DCFE00BF0A48C4F8800047
:103E2000846200BF002211462520FEF7D1F925202B
:103E3000FEF7BAF918B010BD00380140001002407A
:103E4000080002403805002070B504460D461646AD
:103E5000D4F88C00202821D105B10EB9012070BD05
:103E60000020E0660E492068884211D02068406832
:103E700000F4000060B100BF00BF216851E8001FDE
:103E800041F08060226842E800010029F5D100BFBE
:103E900032462946204602F00FF9E0E70220DEE72D
:103EA0000080004070477047704700BFFEE7000089
:103EB00000B585B014216846FCF7E2F94FF6FF70B3
:103EC000009000200190032003900020029069469A
:103ED0000248FEF705F805B000BD000000080048E4
:103EE00000B585B014216846FCF7CAF94FF6FF709B
:103EF0000090012001900320039000200290694669
:103F00000248FDF7EDFF05B000BD000000080048C5
:103F100030B5054600240021084600F0E9F800F01D
:103F200071F900BF03E0284600F030F9641CB4F5D5
:103F3000963FF8D330BD000000B587B0142102A829
:103F4000FCF79EF900BF2B48C06C40F004002949E3
:103F5000C8640846C06C00F00400019000BF00BFB8
:103F600000BF0846C06C40F00100C8640846C06C41
:103F700000F00100019000BF00BF00BF0846C06C08
:103F800040F00200C8640846C06C00F002000190D6
:103F900000BF00BF4FF4487002900120039003203F
:103FA00005900020049002A91348FDF799FF4FF4F3
:103FB000807002900120039003200590002004905F
:103FC00002A94FF09040FDF78BFFFFF789FF4FF0FC
:103FD0009040806940F480704FF0904188610648BD
:103FE0001830006840F4087003491831086007B0C1
:103FF00000BD0000001002400004004810B5FFF7AB
:104000009BFF002000F016F8094908800846008848
:1040100048F23021884202D100F0C8FC01E000F0F3
:1040200055FD002000F006F80149088010BD000091
:104030007800002070B504462748006840F40070FE
:10404000254908600846006840F4807008602248EE
:104050001038006840F020001F49103908601F48E0
:1040600004601D48006840F020001B49086000BF44
:1040700000BF00BF18481038006840F02000164903
:10408000103908600846006840F480700860FFF747
:104090000FFF4FF09040806A40F480704FF09041E5
:1040A000886200BF00BF00BF0C48001F006885B2D7
:1040B0004FF09040806940F480704FF090418861EB
:1040C000FFF70EFF04481038006840F40070024902
:1040D00010390860284670BD2804004814080048BC
:1040E00001B5BDF800000149088008BD7600002038
:1040F00030B504460D462146202000F0BFF8294681
:10410000212000F0BBF830BD01B5BDF80000014929
:10411000088008BD740000202DE9F04706460D46D2
:1041200017464FF0000940F209110020FFF7E0FFA9
:1041300000F068F8002421E0680094FBF0F100FB37
:10414000114088B9B9F1010F0ED14FF0000800BF3E
:1041500005E04FF6FF7000F019F808F10108C5F509
:10416000A0704045F5DC00BF325D611C715C42EA25
:10417000012000F00BF84FF00109A41C05FB07F02B
:10418000B4EB400FD8DBBDE8F08700001B4909689D
:1041900041F40071194A116018491039096841F455
:1041A0008071164A103A11601146096841F02001E9
:1041B0001160134908601149096841F020010F4A54
:1041C000116000BF00BF00BF0C491039096841F001
:1041D00020010A4A103A11601146096841F48071C1
:1041E000116000BF00BF00BF04491039096841F4E5
:1041F0000071024A103A116070470000280400481C
:10420000140800481B48006840F400701949086011
:104210000846006840F4807008601648103800684E
:1042200040F020001349103908602220124908602C
:104230001048006840F020000E49086000BF00BF31
:1042400000BF0C481038006840F0200009491039C0
:1042500008600846006840F48070086000BF00BF36
:1042600000BF04481038006840F40070014910395C
:10427000086070472804004814080048214A126862
:1042800042F400721F4B1A601A46126842F48072A0
:104290001A601C4A103A126842F02002194B103B77
:1042A0001A60194A1060174A126842F02002154B32
:1042B0001A6000BF00BF00BF124A103A126842F0F5
:1042C0002002104B103B1A601A46126842F48072AA
:1042D0001A600D4A11600B4A126842F02002094B25
:1042E0001A6000BF00BF00BF064A103A126842F0D1
:1042F0002002044B103B1A601A46126842F4807286
:104300001A60704728040048140800488168024A6F
:104310001140491C81607047C0FFFF7F01468868DB
:1043200000F01F007047024602F1600000EB8103BD
:10433000186800F0F840704701468868C0F3C00074
:10434000704701468868C0F340007047014688689E
:1043500000F0010070470146886800F001007047D6
:1043600001468868C0F30070704701468868C0F352
:104370008000704701468868C0F38000704701469E
:10438000C86800F4406008B9012070470020FCE7CD
:104390008168024A1140091D81607047C0FFFF7F9C
:1043A00070B500F11404C1F3406504EB85031C688B
:1043B000C1F304560725B540AC43C1F3045502FAD6
:1043C00005F52C431C6070BD826822F0E0720A4340
:1043D0008260704710B500F1600404EB81031C6833
:1043E00024F0004414431C6010BD426922F00042D6
:1043F0000A4342617047000000B58BB0002008906E
:1044000009900A9020216846FBF73AFF4FF0A04040
:10441000204908604FF44030486000211D48816009
:10442000C1600161416104218161002101770121A5
:1044300041770162002180F82410C16201630121EB
:1044400080F838100021C16380F84010FDF7C8F8EB
:1044500008B1FCF7BDFB0020089008A90D48FCF747
:1044600019FC08B1FCF7B4FB0B4800900620019042
:10447000002002907F2003900420049000200590EB
:1044800069460448FCF78CFC08B1FCF7A1FB0BB0B3
:1044900000BD0000B40000200008302E00B589B037
:1044A000202101A8FBF7ECFE1C481D4908604FF4D1
:1044B0004030486000211A488160C160016141615B
:1044C00004218161002101770121417701620021EE
:1044D00080F82410C1620163012180F838100021A6
:1044E000C16380F84010FDF77BF808B1FCF770FB62
:1044F0000C48019006200290002003907F20049039
:10450000042005900020069001A90548FCF748FC0E
:1045100008B1FCF75DFB09B000BD000000010050D0
:10452000200100200080F03E08B500BF2748806CC5
:1045300040F00400254988640846806C00F00400BF
:10454000009000BF00BF00BF0846806C40F0010033
:1045500088640846806C00F00100009000BF00BF36
:1045600000BF0846806C40F0020088640846806CFA
:1045700000F00200009000BF00BF002211460B2097
:10458000FDF726FE0B20FDF70FFE002211460C2042
:10459000FDF71EFE0C20FDF707FE002211460D2040
:1045A000FDF716FE0D20FDF7FFFD002211460E203F
:1045B000FDF70EFE0E20FDF7F7FD002211463B2011
:1045C000FDF706FE3B20FDF7EFFD08BD00100240A1
:1045D00000B587B0142102A8FBF752FE00BF48487F
:1045E000C06C40F004004649C8640846C06C00F046
:1045F0000400019000BF00BF00BF0846C06C40F03F
:104600002000C8640846C06C00F02000019000BF84
:1046100000BF00BF0846C06C40F00100C8640846F7
:10462000C06C00F00100019000BF00BF00BF084651
:10463000C06C40F00200C8640846C06C00F0020084
:10464000019000BF00BF00BF0846C06C40F00800EA
:10465000C8640846C06C00F00800019000BF00BFAD
:1046600001224FF47F412748FDF728FD0022FF215A
:104670002448FDF723FD00224FF480714FF0904055
:10468000FDF71CFD002204211F48FDF717FD4FF622
:10469000FF7002900120039000200490059002A971
:1046A0001848FDF71DFC01200290002003900490A3
:1046B00002A94FF09040FDF713FC07200290002064
:1046C0000390049002A91148FDF70AFC4FF4807092
:1046D00002900120039000200490059002A94FF061
:1046E0009040FDF7FDFB0420029001200390002084
:1046F0000490059002A90448FDF7F2FB07B000BD45
:104700000010024000080048000C00480004004867
:1047100000B591B000200D900E900F9010901421D4
:1047200008A8FBF7ADFD00200590069007900190CA
:104730000290039004904FF08040254908604F207C
:1047400048600021224881604FF6FF71C16000215E
:1047500001618161FEF788FC08B1FCF739FA4FF47A
:1047600080500D900DA91A48FEF764FD08B1FCF7C2
:104770002FFA1748FEF76AFE08B1FCF729FA042061
:1047800008905020099000200A900C9008A9104829
:10479000FEF7D4FF08B1FCF71BFA00200590079044
:1047A00005A90B48FEF704FC08B1FCF711FA00203C
:1047B000019001200290002003900490002201A9A2
:1047C0000348FEF7D4FD08B1FCF702FA11B000BDB2
:1047D0004C02002000B591B000200D900E900F907B
:1047E0001090142108A8FBF74BFD002005900690BF
:1047F0000790019002900390049026482649086093
:10480000502048600021244881604FF6FF71C1604C
:10481000002101618161FEF727FC08B1FCF7D8F99E
:104820004FF480500D900DA91B48FEF703FD08B111
:10483000FCF7CEF91848FEF709FE08B1FCF7C8F9F5
:10484000042008905020099000200A900C9008A99C
:104850001148FEF773FF08B1FCF7BAF90020059084
:10486000079005A90C48FEF7A3FB08B1FCF7B0F9C7
:10487000002001900120029000200390049000226B
:1048800001A90548FEF773FD08B1FCF7A1F911B0C5
:1048900000BD0000000400409802002010B521482F
:1048A000214908604FF41650486000211E4881607D
:1048B000C16001610C21416100218161C16101621E
:1048C00041620020184988620846FFF70FFA08B1D4
:1048D000FCF77EF900211448FFF704F808B1FCF753
:1048E00077F900211048FEF7CEFF08B1FCF770F908
:1048F0000D48FEF759FF08B1FCF76AF901220B4990
:104900000948FFF7A1FA802209490748FEF773FF1B
:1049100008480068006820F004000649096808603B
:1049200010BD000000380140A4040020A4030020B2
:10493000240400203805002000BFFEE700BFFEE78A
:104940007047000070B5164DED6805F00304144D76
:10495000ED68C5F303156B1C022C0CD0032C09D198
:10496000104DB5FBF3F50E4EF668C6F3062605FBB3
:1049700006F10AE000BF0C4DB5FBF3F5084EF668F2
:10498000C6F3062605FB06F100BF00BF044DED6827
:10499000C5F341656D1C6A00B1FBF2F070BD00000B
:1049A0000010024000366E010024F40000B5012121
:1049B0000020FFF763FC4FF47A70FCF7FAF800214F
:1049C0000120FFF75BFC41F290711020FFF756FCCD
:1049D0004FF41C516020FFF751FC01216120FFF7CB
:1049E0004DFC02214620FFF749FC48F2100113203C
:1049F000FFF744FC48F2FE011220FFF73FFC4FF4A2
:104A0000A0610220FFF73AFC41F230010320FFF7DA
:104A100035FC40F203313020FFF730FC40F2033127
:104A20003120FFF72BFC40F203313220FFF726FC48
:104A30004FF440713320FFF721FC03213420FFF7AE
:104A40001DFC40F203313520FFF718FC14213620FD
:104A5000FFF714FC40F203313720FFF70FFC40F260
:104A600003313820FFF70AFC40F203313920FFF709
:104A700005FC4FF440713A20FFF700FC03213B2076
:104A8000FFF7FCFB40F203313C20FFF7F7FB4FF44C
:104A9000A0513D20FFF7F2FB4FF400719220FFF789
:104AA000EDFB40F203319320FFF7E8FB40F60D01E8
:104AB0009020FFF7E3FB41F218010320FFF7DEFB34
:104AC00040F273110720FFF7D9FB00BD10B543F288
:104AD0000801E320FFF7D2FB1221E720FFF7CEFB0E
:104AE00041F23121EF20FFF7C9FB00210120FFF740
:104AF000C5FB4FF4E0610220FFF7C0FB41F230013B
:104B00000320FFF7BBFB00210420FFF7B7FB40F2B7
:104B100007210820FFF7B2FB00210920FFF7AEFBB9
:104B200000210A20FFF7AAFB00210C20FFF7A6FBBB
:104B300000210D20FFF7A2FB00210F20FFF79EFBB5
:104B400000211020FFF79AFB07211120FFF796FBA9
:104B500000211220FFF792FB00211320FFF78EFBAC
:104B6000C820FDF7A9F941F290611020FFF786FBFC
:104B700040F227211120FFF781FB3220FDF79CF93D
:104B80001D211220FFF77AFB3220FDF795F94FF433
:104B900000611320FFF772FB14212920FFF76EFB41
:104BA0000B212B20FFF76AFB3220FDF785F900214E
:104BB0002020FFF763FB00212120FFF75FFB072187
:104BC0003020FFF75BFB40F207713120FFF756FB07
:104BD00006213220FFF752FB40F204713520FFF727
:104BE0004DFB41F604713620FFF748FB04213720C6
:104BF000FFF744FB00213820FFF740FB40F206712D
:104C00003920FFF73BFB40F201713C20FFF736FBF8
:104C10000F213D20FFF732FB00215020FFF72EFB34
:104C2000EF215120FFF72AFB00215220FFF726FB3E
:104C300040F23F115320FFF721FB4FF41C5160203D
:104C4000FFF71CFB01216120FFF718FB00216A2000
:104C5000FFF714FB00218020FFF710FB00218120CB
:104C6000FFF70CFB00218220FFF708FB00218320C7
:104C7000FFF704FB00218420FFF700FB00218520C3
:104C8000FFF7FCFA10219020FFF7F8FA002192209C
:104C9000FFF7F4FA03219320FFF7F0FA4FF488713D
:104CA0009520FFF7EBFA00219720FFF7E7FA0021A4
:104CB0009820FFF7E3FA41F218010320FFF7DEFA2C
:104CC00040F273110720FFF7D9FA10BD704710B5F5
:104CD000FDF700FA10BD00B593B0382105A8FBF729
:104CE000CFFA14216846FBF7CBFA4FF40070FDF7BA
:104CF000C1FA012005900004069002200C900321C7
:104D00000D910E9114210F91022110911191129188
:104D100005A8FDF785FE08B1FBF75AFF0F200090AC
:104D20000320019000200290039004900221684625
:104D3000FDF7EEFC08B1FBF74BFF13B000BD000020
:104D40000348006840F470000149086070470000A3
:104D500088ED00E010B502682A4B98420BD0B0F104
:104D6000804F08D0284B984205D0284B984202D05B
:104D7000274B984203D122F070024B681A43214B13
:104D8000984214D0B0F1804F11D01F4B98420ED0F2
:104D90001E4B98420BD01E4B984208D01D4B984298
:104DA00005D01D4B984202D01C4B984203D122F4EF
:104DB0004072CB681A4322F080034C6943EA040234
:104DC00002608B68C3620B6883620E4B98420BD003
:104DD0000F4B984208D00F4B984205D00E4B98428B
:104DE00002D00E4B984201D10B690363012343614A
:104DF000036903F001031BB1036923F0010303619D
:104E000010BD0000002C01400004004000080040DC
:104E1000003401400040014000440140004801408E
:104E200030B501F01F05012404FA05F3046A9C4320
:104E30000462046A01F01F0502FA05F52C430462BE
:104E400030BD70B50546AC6A606AA8420AD101203F
:104E50002077E86900282BD1012084F83E0084F8EF
:104E6000440025E0A06AA84209D102202077E86921
:104E7000F0B901213F2001554520015518E0E06AB5
:104E8000A84209D104202077E86988B9012140208F
:104E90000155462001550BE0206BA84208D108209F
:104EA0002077E86920B901214120015547200155AB
:104EB0002046FEF75AFA0020207770BD70B50546EF
:104EC000AC6A606AA84202D10120207710E0A06A93
:104ED000A84202D1022020770AE0E06AA84202D16B
:104EE0000420207704E0206BA84201D1082020771D
:104EF0002046FEF73BFA0020207770BD70B50546CE
:104F0000AC6A606AA84204D10120207784F83E0090
:104F10001DE0A06AA84205D10220207701213F2090
:104F2000015514E0E06AA84205D104202077012150
:104F3000402001550BE0206BA84205D108202077C6
:104F400001214120015502E0012084F83D00204666
:104F5000FEF70AFA0020207770BD30B50C46816854
:104F600021F47F4142EA032525432943816030BD76
:104F70000A468168034B194042F0070319438160D8
:104F8000704700008FFFCFFF2DE9F04705460C4624
:104F90004FF0000928688668394806406068064373
:104FA00038480640206806432868866060686028A4
:104FB00051D00EDC302857D006DC002851D0102804
:104FC00050D0202856D14EE040281ED0502851D134
:104FD0003BE02D4A811A904249D00ADC70280DD05E
:104FE000B0F1101F41D0A0F580102038002841D129
:104FF0003CE010293CD040293CD13AE0D4E90313ED
:10500000A2682868FFF7A9FF37E02068052803D0C9
:105010002068B0F1011F02D10120BDE8F0872868A7
:10502000D0F820802868006A20F001002968086212
:105030002868876927F0F007206947EA0017286881
:1050400087612868C0F8208017E02269A168286875
:1050500000F01CF811E02269A168286800F068F8E7
:105060000BE000BF00BF00BF00BF00BF00BF00BF1C
:1050700000BF02E04FF0010900BF00BF4846CCE787
:105080008FFFCFFFF8FFFEFF3000100030B50B465A
:105090001446026A056A25F001050562816921F05E
:1050A000F00141EA041122F00A021A43816102620E
:1050B00030BD000070B50C461546026A066A26F03F
:1050C000010606628169154EB0420ED0B0F1804FE4
:1050D0000BD0134EB04208D0124EB04205D0124E43
:1050E000B04202D0114EB04201D1012600E00026AC
:1050F0001EB121F00301294301E041F0010121F03B
:10510000F001F02606EA0316314322F00A0204F009
:105110000A0632438161026270BD0000002C01402A
:1051200000040040000800400034014000400140FD
:1051300030B50B461446026A056A25F01005056273
:10514000816921F4704141EA043122F0A00242EA6F
:1051500003128161026230BD70B50C461546026AC9
:10516000066A26F010060662816921F4407141EA60
:10517000052121F470414FF4704606EA03363143AD
:1051800022F0A002A02606EA0416324381610262E0
:1051900070BD70B50C461546026A066A26F4807624
:1051A0000662C16921F00301294321F0F001F026D4
:1051B00006EA0316314322F420624FF4206606EA21
:1051C00004263243C161026270BD70B50C461546BB
:1051D000026A066A26F480560662C16921F44071AB
:1051E00041EA052121F470414FF4704606EA033686
:1051F000314322F420424FF4204606EA043632437B
:10520000C161026270BD000070B5456E2DB9012507
:10521000A0F86A50A0F868501CE00823082405682C
:10522000AD68C5F342610568AD686A0F0A4DAD5CB3
:1052300015FB04F5094EB65C95FBF6F5A0F86A502F
:10524000054D6D5C15FB03F5044E765C95FBF6F59C
:10525000A0F8685070BD0000E0F10108E8F1010815
:1052600090F8281001F00801082907D10168496861
:1052700021F40041826B11430268516090F82810BC
:1052800001F0010139B10168496821F40031C26AB5
:1052900011430268516090F8281001F002010229C0
:1052A00007D10168496821F48031026B114302681B
:1052B000516090F8281001F00401042907D1016819
:1052C000496821F48021426B11430268516090F8D3
:1052D000281001F01001102907D10168896821F414
:1052E0008051C26B11430268916090F8281001F060
:1052F0002001202907D10168896821F40051026C3E
:1053000011430268916090F8281001F04001402993
:1053100013D10168496821F48011426C114302687D
:105320005160416CB1F5801F07D10168496821F4D3
:10533000C001826C11430268516090F8281001F09E
:105340008001802907D10168496821F40021C26CDD
:10535000114302685160704738B504460020C4F814
:105360009000FCF7B1FE05462068006800F00800D8
:10537000082821D16FF07E402B4600224FF4001107
:105380000090204600F046FFB0B100BF00BF21688A
:1053900051E8001F21F08000226842E80001002946
:1053A000F5D100BF2020C4F8880000BF002084F899
:1053B000840000BF032038BD2068006800F00400AE
:1053C000042830D16FF07E402B4600224FF480013C
:1053D0000090204600F01EFF28B300BF00BF2168E8
:1053E00051E8001F21F49070226842E80001002972
:1053F000F5D100BF00BF00BF2168083151E8001F90
:1054000021F001002168083141E80002002AF3D1AF
:1054100000BF2020C4F88C0000BF002084F8840066
:1054200000BF0320C7E72020C4F88800C4F88C0020
:105430000020E066206700BF84F8840000BF00BF42
:10544000B9E770B50546AC6A0020A4F85E00A4F880
:1054500056002046FEF777FA70BD2DE9F04105466B
:10546000AC6AD4F88860D4F88C702068806800F04A
:105470008000802807D1212E05D10020A4F85600F5
:10548000204600F0D5F82068806800F040004028F1
:1054900007D1222F05D10020A4F85E00204600F09D
:1054A00079F8D4F8900040F01000C4F8900020463D
:1054B000FEF749FABDE8F08170B50546AC6A286888
:1054C000006800F02000E0BB0020A4F85E0000BFF0
:1054D00000BF216851E8001F21F48070226842E873
:1054E00000010029F5D100BF00BF00BF21680831CD
:1054F00051E8001F21F001002168083141E8000255
:10550000002AF3D100BF00BF00BF2168083151E875
:10551000001F21F040002168083141E80002002A04
:10552000F3D100BF2020C4F88C00E06E01280ED11A
:1055300000BF00BF216851E8001F21F01000226861
:1055400000E004E042E800010029F3D100BF0020A0
:105550002067E06E012805D1B4F85C102046FEF704
:105560007BF902E02046FEF79DFC70BD70B5054654
:10557000AC6A01202067E06E012806D1B4F85C0017
:1055800041082046FEF768F902E02046FEF78BFC52
:1055900070BD000000BF00BF026852E8002F22F477
:1055A0009071036843E80012002AF5D100BF00BFE4
:1055B00000BF0268083252E8002F104B02EA0301D4
:1055C0000268083242E80013002BF2D100BFC16E1E
:1055D00001290CD100BF00BF026852E8002F22F061
:1055E0001001036843E80012002AF5D100BF202112
:1055F000C0F88C100021C16641677047FEFFFFEFC5
:1056000010B5044600BF00BF216851E8001F21F01B
:105610004000226842E800010029F5D100BF2020A7
:10562000C4F888000020A0672046FEF73DFC10BDAE
:1056300000BF00BF026852E8002F22F0C0010368DB
:1056400043E80012002AF5D100BF00BF00BF026886
:10565000083252E8002F22F400010268083242E8C2
:105660000013002BF3D100BF2021C0F88810704731
:105670002DE9F0410446B4F86070D4F88C0022287B
:105680006ED12068406A86B2A56D06EA07002880C0
:10569000A06D801CA065B4F85E00401EA4F85E00FA
:1056A000B4F85E00002861D100BF00BF216851E856
:1056B000001F21F49070226842E800010029F5D112
:1056C00000BF00BF00BF2168083151E8001F21F072
:1056D00001002168083141E80002002AF3D100BF2F
:1056E0002020C4F88C0000206067206720492068D3
:1056F000884211D02068406800F4000060B100BF0B
:1057000000BF216851E8001F21F08060226842E854
:1057100000010029F5D100BFE06E01281CD1002056
:10572000E06600BF00BF216851E8001F21F01000B3
:10573000226842E800010029F5D100BF2068C06955
:10574000C0F3001010B1102021680862B4F85C109A
:105750002046FEF781F809E02046FEF7A3FB05E0AE
:105760002068806940F0080021688861BDE8F08108
:10577000008000402DE9F84F0446B4F860B020687E
:10578000C5692068006800902068D0F808A0D4F8A7
:105790008C0022287ED1B4F86890ADE02068406A81
:1057A0001FFA80F8A76D08EA0B003880A06D801CF6
:1057B000A065B4F85E00401EA4F85E002068C569CC
:1057C00005F00700B0B305F0010060B1009800F4E7
:1057D000807040B1012021680862D4F8900040F048
:1057E0000100C4F8900005F0020058B10AF0010071
:1057F00040B1022021680862D4F8900040F0040013
:10580000C4F8900005F0040058B10AF0010040B15E
:10581000042021680862D4F8900040F00200C4F827
:105820009000D4F8900028B12046FEF78CF80020B4
:10583000C4F89000B4F85E0000285DD100BF00BF3E
:10584000216851E8001F21F48070226842E80001BD
:105850000029F5D100BF00BF00BF2168083151E821
:10586000001F404A01EA02002168083141E80002B5
:10587000002AF2D100BF2020C4F88C00002060670D
:10588000206739492068884213D02068406800F4B6
:10589000000000E05DE060B100BF00BF216851E89A
:1058A000001F21F08060226842E800010029F5D144
:1058B00000BFE06E01281CD10020E06600BF00BFE1
:1058C000216851E8001F21F01000226842E8000121
:1058D0000029F5D100BF2068C069C0F3001010B1E5
:1058E000102021680862B4F85C102046FDF7B4FF70
:1058F00002E02046FEF7D6FAB9F1000F04D005F019
:10590000200000287FF44AAFB4F85E6006B3B4F814
:105910006800B04223DD00BF00BF2168083151E8B4
:10592000001F21F080502168083141E80002002A60
:10593000F3D100BF0D48606700BF00BF216851E888
:10594000001F41F02000226842E800010029F5D143
:1059500005E02068806940F0080021688861BDE8A2
:10596000F88F0000FEFFFFEF008000407156000836
:1059700070B50446B4F86060D4F88C0022286FD16A
:105980002068406A85B2F0B22840A16D0870A06D11
:10599000401CA065B4F85E00401EA4F85E00B4F898
:1059A0005E00002862D100BF00BF216851E8001FDF
:1059B00021F49070226842E800010029F5D100BF6F
:1059C00000BF00BF2168083151E8001F21F001002D
:1059D0002168083141E80002002AF3D100BF2020ED
:1059E000C4F88C0000206067206721492068884245
:1059F00011D02068406800F4000060B100BF00BF13
:105A0000216851E8001F21F08060226842E800010F
:105A10000029F5D100BFE06E01281CD10020E0660E
:105A200000BF00BF216851E8001F21F0100022686C
:105A300042E800010029F5D100BF2068C069C0F329
:105A4000001010B1102021680862B4F85C102046E4
:105A5000FDF702FF0AE02046FEF724FA06E0FFE722
:105A60002068806940F008002168886170BD0000EE
:105A7000008000402DE9F05F0446B4F860A0206883
:105A8000C5692068D0F800B02068D0F80890D4F834
:105A90008C0022287ED1B4F86880ACE02068406A8F
:105AA00087B20AF0FF003840A16D0870A06D401C5D
:105AB000A065B4F85E00401EA4F85E002068C569C9
:105AC00005F00700A8B305F0010058B10BF4807091
:105AD00040B1012021680862D4F8900040F0010034
